{
  "_format": "hh-sol-artifact-1",
  "contractName": "MedicalRecordV2",
  "sourceName": "contracts/MedicalRecordV2.sol",
  "abi": [
    {
      "anonymous": false,
      "inputs": [
        {
          "indexed": false,
          "internalType": "address",
          "name": "sender",
          "type": "address"
        },
        {
          "indexed": false,
          "internalType": "uint256",
          "name": "recordId",
          "type": "uint256"
        }
      ],
      "name": "CreateMedicalRecord",
      "type": "event"
    },
    {
      "anonymous": false,
      "inputs": [
        {
          "indexed": false,
          "internalType": "uint256",
          "name": "recordId",
          "type": "uint256"
        }
      ],
      "name": "DeleteMedicalRecord",
      "type": "event"
    },
    {
      "anonymous": false,
      "inputs": [
        {
          "indexed": false,
          "internalType": "uint256",
          "name": "recordId",
          "type": "uint256"
        }
      ],
      "name": "EditMedicalRecord",
      "type": "event"
    },
    {
      "anonymous": false,
      "inputs": [
        {
          "indexed": false,
          "internalType": "uint256",
          "name": "recordId",
          "type": "uint256"
        }
      ],
      "name": "RestoreMedicalRecord",
      "type": "event"
    },
    {
      "inputs": [
        {
          "internalType": "string",
          "name": "data",
          "type": "string"
        },
        {
          "internalType": "string",
          "name": "userId",
          "type": "string"
        },
        {
          "internalType": "string",
          "name": "doctorId",
          "type": "string"
        }
      ],
      "name": "createMedicalRecord",
      "outputs": [],
      "stateMutability": "nonpayable",
      "type": "function"
    },
    {
      "inputs": [
        {
          "internalType": "uint256",
          "name": "id",
          "type": "uint256"
        }
      ],
      "name": "deleteMedicalRecord",
      "outputs": [
        {
          "internalType": "bool",
          "name": "",
          "type": "bool"
        }
      ],
      "stateMutability": "nonpayable",
      "type": "function"
    },
    {
      "inputs": [
        {
          "internalType": "uint256",
          "name": "id",
          "type": "uint256"
        },
        {
          "internalType": "string",
          "name": "data",
          "type": "string"
        }
      ],
      "name": "editMedicalRecord",
      "outputs": [
        {
          "internalType": "bool",
          "name": "",
          "type": "bool"
        }
      ],
      "stateMutability": "nonpayable",
      "type": "function"
    },
    {
      "inputs": [
        {
          "internalType": "uint256",
          "name": "id",
          "type": "uint256"
        }
      ],
      "name": "getMedicalRecord",
      "outputs": [
        {
          "components": [
            {
              "internalType": "uint256",
              "name": "id",
              "type": "uint256"
            },
            {
              "internalType": "address",
              "name": "walletId",
              "type": "address"
            },
            {
              "internalType": "string",
              "name": "data",
              "type": "string"
            },
            {
              "internalType": "bool",
              "name": "isDeleted",
              "type": "bool"
            },
            {
              "internalType": "string",
              "name": "userId",
              "type": "string"
            },
            {
              "internalType": "string",
              "name": "doctorId",
              "type": "string"
            },
            {
              "internalType": "uint256",
              "name": "createdAt",
              "type": "uint256"
            },
            {
              "internalType": "uint256",
              "name": "updatedAt",
              "type": "uint256"
            }
          ],
          "internalType": "struct MedicalRecordV2.Record",
          "name": "",
          "type": "tuple"
        }
      ],
      "stateMutability": "view",
      "type": "function"
    },
    {
      "inputs": [
        {
          "internalType": "string",
          "name": "doctorId",
          "type": "string"
        }
      ],
      "name": "getRecordsbyDoctorId",
      "outputs": [
        {
          "components": [
            {
              "internalType": "uint256",
              "name": "id",
              "type": "uint256"
            },
            {
              "internalType": "address",
              "name": "walletId",
              "type": "address"
            },
            {
              "internalType": "string",
              "name": "data",
              "type": "string"
            },
            {
              "internalType": "bool",
              "name": "isDeleted",
              "type": "bool"
            },
            {
              "internalType": "string",
              "name": "userId",
              "type": "string"
            },
            {
              "internalType": "string",
              "name": "doctorId",
              "type": "string"
            },
            {
              "internalType": "uint256",
              "name": "createdAt",
              "type": "uint256"
            },
            {
              "internalType": "uint256",
              "name": "updatedAt",
              "type": "uint256"
            }
          ],
          "internalType": "struct MedicalRecordV2.Record[]",
          "name": "",
          "type": "tuple[]"
        }
      ],
      "stateMutability": "view",
      "type": "function"
    },
    {
      "inputs": [
        {
          "internalType": "string",
          "name": "userId",
          "type": "string"
        }
      ],
      "name": "getRecordsbyUserId",
      "outputs": [
        {
          "components": [
            {
              "internalType": "uint256",
              "name": "id",
              "type": "uint256"
            },
            {
              "internalType": "address",
              "name": "walletId",
              "type": "address"
            },
            {
              "internalType": "string",
              "name": "data",
              "type": "string"
            },
            {
              "internalType": "bool",
              "name": "isDeleted",
              "type": "bool"
            },
            {
              "internalType": "string",
              "name": "userId",
              "type": "string"
            },
            {
              "internalType": "string",
              "name": "doctorId",
              "type": "string"
            },
            {
              "internalType": "uint256",
              "name": "createdAt",
              "type": "uint256"
            },
            {
              "internalType": "uint256",
              "name": "updatedAt",
              "type": "uint256"
            }
          ],
          "internalType": "struct MedicalRecordV2.Record[]",
          "name": "",
          "type": "tuple[]"
        }
      ],
      "stateMutability": "view",
      "type": "function"
    },
    {
      "inputs": [
        {
          "internalType": "uint256",
          "name": "id",
          "type": "uint256"
        }
      ],
      "name": "restoreMedicalRecord",
      "outputs": [
        {
          "internalType": "bool",
          "name": "",
          "type": "bool"
        }
      ],
      "stateMutability": "nonpayable",
      "type": "function"
    }
  ],
  "bytecode": "0x608060405234801561001057600080fd5b506116c1806100206000396000f3fe608060405234801561001057600080fd5b506004361061007d5760003560e01c8063691c0a571161005b578063691c0a57146100eb57806371f9eb5e146100fe578063a1f2f5bb14610111578063f0c712341461012657600080fd5b80630c38872214610082578063388eb949146100ab57806339793e51146100cb575b600080fd5b610095610090366004610fa2565b610139565b6040516100a29190611102565b60405180910390f35b6100be6100b936600461120d565b61038b565b6040516100a29190611265565b6100de6100d9366004611273565b61044f565b6040516100a29190611320565b6100be6100f9366004610fa2565b610866565b6100de61010c366004611273565b61090a565b61012461011f366004611331565b610d18565b005b6100be610134366004610fa2565b610ec0565b610141610f4b565b60008281548110610154576101546113d1565b906000526020600020906008020160405180610100016040529081600082015481526020016001820160009054906101000a90046001600160a01b03166001600160a01b03166001600160a01b031681526020016002820180546101b7906113fd565b80601f01602080910402602001604051908101604052809291908181526020018280546101e3906113fd565b80156102305780601f1061020557610100808354040283529160200191610230565b820191906000526020600020905b81548152906001019060200180831161021357829003601f168201915b5050509183525050600382015460ff161515602082015260048201805460409092019161025c906113fd565b80601f0160208091040260200160405190810160405280929190818152602001828054610288906113fd565b80156102d55780601f106102aa576101008083540402835291602001916102d5565b820191906000526020600020905b8154815290600101906020018083116102b857829003601f168201915b505050505081526020016005820180546102ee906113fd565b80601f016020809104026020016040519081016040528092919081815260200182805461031a906113fd565b80156103675780601f1061033c57610100808354040283529160200191610367565b820191906000526020600020905b81548152906001019060200180831161034a57829003601f168201915b50505050508152602001600682015481526020016007820154815250509050919050565b600082815260016020526040812054336001600160a01b03909116036104455781600084815481106103bf576103bf6113d1565b906000526020600020906008020160020190816103dc91906114d2565b5042600084815481106103f1576103f16113d1565b9060005260206000209060080201600701819055507fabdfe5cd3eb1f8db2ce9a8da49235a51b5546ea17939e02c1afec8630d4c46dc836040516104359190611596565b60405180910390a1506001610449565b5060005b92915050565b600080546060919067ffffffffffffffff81111561046f5761046f61111a565b6040519080825280602002602001820160405280156104a857816020015b610495610f4b565b81526020019060019003908161048d5790505b5090506000805b6000548110156107b057846040516020016104ca91906115a4565b60405160208183030381529060405280519060200120600082815481106104f3576104f36113d1565b9060005260206000209060080201600501604051602001610514919061162f565b604051602081830303815290604052805190602001200361079e5760008181548110610542576105426113d1565b906000526020600020906008020160405180610100016040529081600082015481526020016001820160009054906101000a90046001600160a01b03166001600160a01b03166001600160a01b031681526020016002820180546105a5906113fd565b80601f01602080910402602001604051908101604052809291908181526020018280546105d1906113fd565b801561061e5780601f106105f35761010080835404028352916020019161061e565b820191906000526020600020905b81548152906001019060200180831161060157829003601f168201915b5050509183525050600382015460ff161515602082015260048201805460409092019161064a906113fd565b80601f0160208091040260200160405190810160405280929190818152602001828054610676906113fd565b80156106c35780601f10610698576101008083540402835291602001916106c3565b820191906000526020600020905b8154815290600101906020018083116106a657829003601f168201915b505050505081526020016005820180546106dc906113fd565b80601f0160208091040260200160405190810160405280929190818152602001828054610708906113fd565b80156107555780601f1061072a57610100808354040283529160200191610755565b820191906000526020600020905b81548152906001019060200180831161073857829003601f168201915b5050505050815260200160068201548152602001600782015481525050838381518110610784576107846113d1565b6020026020010181905250818061079a90611656565b9250505b806107a881611656565b9150506104af565b5060008167ffffffffffffffff8111156107cc576107cc61111a565b60405190808252806020026020018201604052801561080557816020015b6107f2610f4b565b8152602001906001900390816107ea5790505b50905060005b8281101561085d57838181518110610825576108256113d1565b602002602001015182828151811061083f5761083f6113d1565b6020026020010181905250808061085590611656565b91505061080b565b50949350505050565b600081815260016020526040812054336001600160a01b03909116036109025760016000838154811061089b5761089b6113d1565b906000526020600020906008020160030160006101000a81548160ff0219169083151502179055507f20aa50cfdb1c9f8c1db258e4484e8ef2ead1469dd96235a6573189c538b1692a826040516108f29190611596565b60405180910390a1506001919050565b506000919050565b600080546060919067ffffffffffffffff81111561092a5761092a61111a565b60405190808252806020026020018201604052801561096357816020015b610950610f4b565b8152602001906001900390816109485790505b5090506000805b600054811015610c6b578460405160200161098591906115a4565b60405160208183030381529060405280519060200120600082815481106109ae576109ae6113d1565b90600052602060002090600802016004016040516020016109cf919061162f565b6040516020818303038152906040528051906020012003610c5957600081815481106109fd576109fd6113d1565b906000526020600020906008020160405180610100016040529081600082015481526020016001820160009054906101000a90046001600160a01b03166001600160a01b03166001600160a01b03168152602001600282018054610a60906113fd565b80601f0160208091040260200160405190810160405280929190818152602001828054610a8c906113fd565b8015610ad95780601f10610aae57610100808354040283529160200191610ad9565b820191906000526020600020905b815481529060010190602001808311610abc57829003601f168201915b5050509183525050600382015460ff1615156020820152600482018054604090920191610b05906113fd565b80601f0160208091040260200160405190810160405280929190818152602001828054610b31906113fd565b8015610b7e5780601f10610b5357610100808354040283529160200191610b7e565b820191906000526020600020905b815481529060010190602001808311610b6157829003601f168201915b50505050508152602001600582018054610b97906113fd565b80601f0160208091040260200160405190810160405280929190818152602001828054610bc3906113fd565b8015610c105780601f10610be557610100808354040283529160200191610c10565b820191906000526020600020905b815481529060010190602001808311610bf357829003601f168201915b5050505050815260200160068201548152602001600782015481525050838381518110610c3f57610c3f6113d1565b60200260200101819052508180610c5590611656565b9250505b80610c6381611656565b91505061096a565b5060008167ffffffffffffffff811115610c8757610c8761111a565b604051908082528060200260200182016040528015610cc057816020015b610cad610f4b565b815260200190600190039081610ca55790505b50905060005b8281101561085d57838181518110610ce057610ce06113d1565b6020026020010151828281518110610cfa57610cfa6113d1565b60200260200101819052508080610d1090611656565b915050610cc6565b6000805460408051610100810182528281523360208201908152918101878152606082018590526080820187905260a082018690524260c0830181905260e083015260018401855593805280517f290decd9548b62a8d60345a988386fc84ba6bc95484008f6362f93160ef3e5636008850290810191825592517f290decd9548b62a8d60345a988386fc84ba6bc95484008f6362f93160ef3e564840180546001600160a01b0319166001600160a01b0390921691909117905593519293909290917f290decd9548b62a8d60345a988386fc84ba6bc95484008f6362f93160ef3e5650190610e0790826114d2565b50606082015160038201805460ff191691151591909117905560808201516004820190610e3490826114d2565b5060a08201516005820190610e4990826114d2565b5060c0820151600682015560e0909101516007909101556000818152600160205260409081902080546001600160a01b0319163390811790915590517f57fb2e017070d787be10944498c4b6d63b5fbd9b0d92827822b40c610e3b15c991610eb2918490611670565b60405180910390a150505050565b600081815260016020526040812054336001600160a01b0390911603610902576000808381548110610ef457610ef46113d1565b906000526020600020906008020160030160006101000a81548160ff0219169083151502179055507fb8a3a6b649be58a2c2b6d65ad72b9ff317cbdcd10ab25c53ac997efd2506a297826040516108f29190611596565b6040518061010001604052806000815260200160006001600160a01b0316815260200160608152602001600015158152602001606081526020016060815260200160008152602001600081525090565b8035610449565b600060208284031215610fb757610fb7600080fd5b6000610fc38484610f9b565b949350505050565b805b82525050565b60006001600160a01b038216610449565b610fcd81610fd3565b60005b83811015611008578181015183820152602001610ff0565b50506000910152565b600061101b825190565b808452602084019350611032818560208601610fed565b601f01601f19169290920192915050565b801515610fcd565b80516000906101008401906110608582610fcb565b5060208301516110736020860182610fe4565b506040830151848203604086015261108b8282611011565b91505060608301516110a06060860182611043565b50608083015184820360808601526110b88282611011565b91505060a083015184820360a08601526110d28282611011565b91505060c08301516110e760c0860182610fcb565b5060e08301516110fa60e0860182610fcb565b509392505050565b60208082528101611113818461104b565b9392505050565b634e487b7160e01b600052604160045260246000fd5b601f19601f830116810181811067ffffffffffffffff821117156111565761115661111a565b6040525050565b600061116860405190565b90506111748282611130565b919050565b600067ffffffffffffffff8211156111935761119361111a565b601f19601f83011660200192915050565b82818337506000910152565b60006111c36111be84611179565b61115d565b9050828152602081018484840111156111de576111de600080fd5b6110fa8482856111a4565b600082601f8301126111fd576111fd600080fd5b8135610fc38482602086016111b0565b6000806040838503121561122357611223600080fd5b600061122f8585610f9b565b925050602083013567ffffffffffffffff81111561124f5761124f600080fd5b61125b858286016111e9565b9150509250929050565b602081016104498284611043565b60006020828403121561128857611288600080fd5b813567ffffffffffffffff8111156112a2576112a2600080fd5b610fc3848285016111e9565b6000611113838361104b565b60006112c4825190565b808452602084019350836020820285016112de8560200190565b8060005b8581101561131357848403895281516112fb85826112ae565b94506020830160209a909a01999250506001016112e2565b5091979650505050505050565b6020808252810161111381846112ba565b60008060006060848603121561134957611349600080fd5b833567ffffffffffffffff81111561136357611363600080fd5b61136f868287016111e9565b935050602084013567ffffffffffffffff81111561138f5761138f600080fd5b61139b868287016111e9565b925050604084013567ffffffffffffffff8111156113bb576113bb600080fd5b6113c7868287016111e9565b9150509250925092565b634e487b7160e01b600052603260045260246000fd5b634e487b7160e01b600052602260045260246000fd5b60028104600182168061141157607f821691505b602082108103611423576114236113e7565b50919050565b60006104496114358381565b90565b61144183611429565b81546008840282811b60001990911b908116901990911617825550505050565b600061146e818484611438565b505050565b8181101561148e57611486600082611461565b600101611473565b5050565b601f82111561146e576000818152602090206020601f850104810160208510156114b95750805b6114cb6020601f860104830182611473565b5050505050565b815167ffffffffffffffff8111156114ec576114ec61111a565b6114f682546113fd565b611501828285611492565b6020601f831160018114611535576000841561151d5750858201515b600019600886021c198116600286021786555061158e565b600085815260208120601f198616915b828110156115655788850151825560209485019460019092019101611545565b868310156115815784890151600019601f89166008021c191682555b6001600288020188555050505b505050505050565b602081016104498284610fcb565b602080825281016111138184611011565b600081546115c2816113fd565b8085526020850194506001821680156115e257600181146115f857611626565b60ff198316865260208215150286019350611626565b60008581526020902060005b8381101561162057815488820152600190910190602001611604565b87019450505b50505092915050565b6020808252810161111381846115b5565b634e487b7160e01b600052601160045260246000fd5b6000600019820361166957611669611640565b5060010190565b6040810161167e8285610fe4565b6111136020830184610fcb56fea2646970667358221220c45ddb20c8183b2932e2e16288db6accfa4d79ba853de978f28c17ee42bbb2ac64736f6c63430008110033",
  "linkReferences": {},
  "deployedLinkReferences": {}
}